:100000000C9446000C9465000C9465000C946500FB
:100010000C9465000C9489000C94B0040C94650059
:100020000C9465000C9465000C9465000C946500BC
:100030000C9465000C9465000C9465000C946500AC
:100040000C94CC0F0C9465000C9465000C94650026
:100050000C9465000C9465000C9465000C9465008C
:100060000C9465000C9465000C9465000C9465007C
:100070000C9465000C9465000C9465000C9465006C
:100080000C9465000C9465000C94650011241FBE4F
:10009000CFEFD0E1DEBFCDBF12E0A0E0B1E0EEE2F5
:1000A000F1E200E00BBF02C007900D92AE32B10743
:1000B000D9F717E0AEE2B2E001C01D92AB38B1074C
:1000C000E1F70E94BF050C9495100C94000080E2AB
:1000D00087B987E886B908958FEC82B98AE08ABF2C
:1000E00080E389BF8FB780688FBF0895369A349BAD
:1000F000FECF24B185B1229526952695237030E058
:1001000090E0880F991F880F991F282B392BC90160
:1001100008951F920F920FB60F9211242F933F93C1
:100120004F935F936F937F938F939F93AF93BF93FF
:1001300080911001909111018430910509F4A6C0BD
:100140008530910504F18A30910509F457C00B9769
:1001500009F443C020EB34E040E951E0CA010197C3
:10016000F1F721503040D1F7BF91AF919F918F911E
:100170007F916F915F914F913F912F910F900FBEA3
:100180000F901F9018958230910509F461C0039774
:1001900009F78091140190911501029709F4C2C0EA
:1001A0008091140190911501019709F4ABC08091E1
:1001B000140190911501892B69F680913A02909172
:1001C0003B0201966CE370E00E944C1090933B025E
:1001D00080933A0220EB34E0BFCF8AE090E0909326
:1001E0001101809310011092470210924602109262
:1001F00049021092480220EB34E0AECF80912E02EB
:1002000090912F02019690932F0280932E0280915D
:100210002E0290912F02079724F010922F02109235
:100220002E0280912E0290912F0202970CF498C01A
:1002300080912E0290912F0205970CF045C081E02D
:1002400090E0909317018093160120EB34E084CF67
:100250008091120190911301019709F443C080919C
:10026000120190911301892B09F074CF809134020F
:100270009091350201966CE370E00E944C109093CF
:1002800035028093340220EB34E066CF8091440243
:1002900090914502019709F453C0809144029091D6
:1002A0004502892B09F056CF80914202909143027A
:1002B00001966BE070E00E944C1090934302809393
:1002C000420220EB34E048CF80912E0290912F0221
:1002D00007970CF03FCF109217011092160120EBF8
:1002E00034E03ACF8091320290913302019668E176
:1002F00070E00E944C10909333028093320220EB06
:1003000034E02ACF8091380290913902019668E159
:1003100070E00E944C10909339028093380220EBD9
:1003200034E01ACF80913C0290913D0201966EE13B
:1003300070E00E944C1090933D0280933C0230CFBD
:10034000809140029091410201966BE070E00E9422
:100350004C10909341028093400220EB34E0FCCE9D
:1003600082E090E0909317018093160120EB34E037
:10037000F3CEEF92FF920F931F93DF93CF930F92E1
:10038000CDB7DEB77E010894E11CF11C0BE010E054
:100390000BC08091480290914902019709F449C02D
:1003A00088EE93E00E946309809146029091470293
:1003B000019779F720913C0230913D0280913602FD
:1003C000909137022817390759F720913802309158
:1003D000390280913202909133022817390701F7D0
:1003E00020913A0230913B02809134029091350283
:1003F00028173907A9F68091300290913102892B94
:1004000079F6109311010093100180914E0590919F
:100410004F0560E070E0A7010E942C0B109237029C
:100420001092360280914E0590914F050E940D0B5F
:10043000B7CF209142023091430280913E029091C9
:100440003F028217930760F02091400230914102F1
:1004500080913E0290913F022817390708F0A0CF03
:1004600010931101009310019BCF80E287B987E8B8
:1004700086B90E94760064E670E00E944C10CB01C1
:100480006AE070E00E944C1090933F0280933E021D
:1004900084EF91E00E946309ECCFCF93DF938FEF5D
:1004A0008ABBC1E0D0E080912E0290912F029E0184
:1004B00002C0220F331F8A95E2F72BBB84EF91E035
:1004C0000E946309F0CF2F923F924F925F926F92FA
:1004D0007F928F929F92AF92BF92CF92DF92EF92D4
:1004E000FF920F931F93DF93CF93CDB7DEB728977B
:1004F0000FB6F894DEBF0FBECDBF8FEF84BB8FE089
:10050000809364004E010894811C911C18E3412ED5
:10051000512CB1E36B2E712CADE62A2E312C80913B
:100520001001909111010A9709F49CC0809110016B
:1005300090911101892B09F45FC080911001909175
:100540001101029709F458C0809110019091110196
:10055000039709F4BEC08091100190911101049796
:1005600009F4FDC080911001909111010B9709F4DD
:100570002CC18091100190911101019709F434C1AF
:1005800061E0A62EB12C52E2C52E51E0D52E7401A9
:1005900001E010E0A114B104D9F4D7018C9185BB1E
:1005A000D6018C918093650082E090E00E946309FF
:1005B000043011050CF0B3CF0F5F1F4F0894C11C1E
:1005C000D11CE2E0F0E0EE0EFF1EA114B10429F30D
:1005D000D701ED91FC91E85EFE4F808185BB033031
:1005E0001105F1F6AF9AF60180818093650082E0F3
:1005F00090E00E946309E0CF809132029091330233
:100600006AE070E00E944C10CB016AE070E00E944A
:100610004C1098878F8380913202909133026AE068
:1006200070E00E944C109E838D83809134029091E3
:1006300035026AE070E00E944C10CB016AE070E085
:100640000E944C109C838B838091340290913502E0
:100650006AE070E00E944C109A838983F1E0AF2E2B
:10066000B12C91CF8091160190911701029731F131
:100670008091160190911701019709F467C080914C
:10068000160190911701892B41F489E390E0988736
:100690008F835E824D823C822B8280912E029091CC
:1006A0002F026AE070E00E946010FC01E85EFE4FDD
:1006B000808189831A82AA24BB2465CF8DE390E0D0
:1006C00098878F83A9E7B0E0BE83AD837C826B827D
:1006D000E4CF8091140190911501029709F4A4C010
:1006E00080913802909139026AE070E00E944C10CB
:1006F000CB016AE070E00E944C1098878F83809154
:100700003802909139026AE070E00E944C109E839A
:100710008D8380913A0290913B026AE070E00E94E2
:100720004C10CB016AE070E00E944C109C838B83DC
:1007300080913A0290913B026AE070E00E944C1076
:100740009A838983E1E0AE2EB12C1DCF38862F82AB
:10075000E9E7F0E0FE83ED837C826B829ECF80919F
:100760004202909143026AE070E00E944C10CB017B
:100770006AE070E00E944C1098878F83809142025B
:10078000909143026AE070E00E944C109E838D833A
:1007900080914002909141026AE070E00E944C100A
:1007A000CB016AE070E00E944C109C838B838091A7
:1007B0004002909141026AE070E00E944C109A83DE
:1007C000898371E0A72EB12CDECE87E790E0988771
:1007D0008F835E824D829C838B83A7E3B0E0BA83D4
:1007E000A983AA24BB24CFCE58864F827E826D82F5
:1007F00080913E0290913F026AE070E00E944C10AE
:10080000CB016AE070E00E944C10FC01E85EFE4FF4
:1008100080818B831C8280913E0290913F026AE02E
:1008200070E00E944C1041CFAEE5B0E0B887AF83D6
:10083000EEE6F0E0FE83ED8380913C0290913D0274
:100840006AE070E00E944C10CB016AE070E00E9408
:100850004C10FC01E85EFE4F80818B831C828091EE
:100860003C0290913D026AE070E00E944C101DCF66
:10087000EF92FF920F931F93DF93CF930F92CDB719
:10088000DEB77E010894E11CF11C0DC0809130029E
:10089000909131020196909331028093300288EE5C
:1008A00093E00E94630980911001909111010297D9
:1008B00071F18091300290913102CC9738F38091A0
:1008C000340290913502CC9770F48091340290916B
:1008D00035020196909335028093340210923102D2
:1008E00010923002DCCF809132029091330248970F
:1008F000D0F48091320290913302019690933302AA
:10090000809332021092350210923402E7CF809128
:100910004C0390914D0361E043E820E030E0870113
:100920000E940B0CBCCF80914E0590914F0560E06A
:1009300070E0A7010E942C0B809136029091370243
:100940000196909337028093360280914E059091E4
:100950004F050E940D0B1092330210923202D2CF3B
:100960001F920F920FB60F920BB60F9211242F9376
:100970003F934F935F936F937F938F939F93AF9327
:10098000BF93EF93FF93DF93CF930F92CDB7DEB773
:1009900080911001909111018430910509F458C0A3
:1009A00085309105A4F18630910509F44AC086305E
:1009B00091050CF43BC08A30910509F459C00B979E
:1009C00091F58AE090E0909311018093100120EB63
:1009D00034E040E951E0CA010197F1F7215030407D
:1009E000D1F70F90CF91DF91FF91EF91BF91AF9130
:1009F0009F918F917F916F915F914F913F912F9137
:100A00000F900BBE0F900FBE0F901F901895813066
:100A10009105B9F28230910584F08230910509F494
:100A20005CC0039781F120EB34E0D3CF10924702F2
:100A30001092460220EB34E0CCCF892B09F4C1CFD1
:100A4000F2CF109249021092480220EB34E0C1CF5D
:100A50008091440290914502892B09F066C081E0A3
:100A600090E0909345028093440220EB34E0B1CFB4
:100A700080912E0290912F0290931101809310018A
:100A800020EB34E0A6CF80911401909115010297DC
:100A900009F465C08091140190911501019709F442
:100AA00057C08091140190911501892B09F0BBCF9B
:100AB00082E090E090931501809314018AE090E029
:100AC000909311018093100181E090E09093470290
:100AD0008093460220EB34E07CCF8091120190910C
:100AE0001301019709F444C0809112019091130100
:100AF000892B09F098CF81E090E0909313018093C7
:100B000012018AE090E0909311018093100180918E
:100B10004C0390914D0361E041E09E012F5F3F4FF8
:100B20000E94770B20EB34E054CF8AE090E0909362
:100B3000110180931001109245021092440281E04D
:100B400090E0909349028093480220EB34E041CF3B
:100B5000109215011092140120EB34E03ACF81E09D
:100B600090E0909315018093140120EB34E031CF95
:100B7000109213011092120120EB34E02ACFDF9380
:100B8000CF930F92CDB7DEB70E94760EF89483E034
:100B900083BF81E087BF84E682BF789480E0BE0196
:100BA0006F5F7F4F0E949A0790934D0380934C0391
:100BB00081E090E00E947A0890934F0580934E0563
:100BC0008FEC82B98AE08ABF80E389BF8FB78068E3
:100BD0008FBF88E394E060E070E04DEC53E021E0EB
:100BE0000E94B90A83E692E060E070E04DE455E0CF
:100BF00022E00E94B90A89EB91E060E070E04BE4EA
:100C000053E023E00E94B90A85E392E060E070E0DF
:100C10004DE454E024E00E94B90A8DE492E060E0E3
:100C200070E04BEC52E025E00E94B90A0E94F60DFC
:100C300080E090E00F90CF91DF910895FA018083DA
:100C40009293129212921292129212921292129203
:100C50001292129212921292129212921292129274
:100C60001292129212921292129212921292129264
:100C700012926293729312921292129212921292A2
:100C80001292129280E882933197CF0108950895CD
:100C9000089508950895089508950895089508956C
:100CA00080915105813009F008958091F2058F3FC0
:100CB000D9F38F5F8093F2050895809151058130BB
:100CC00009F00895F894809150058F3F19F08F5FD7
:100CD00080935005789408958CEF90E008951F93C9
:100CE000CF93DF93EC01142F3981E32FF0E0E25D25
:100CF000FE4F2081622F70E0FB01EA5DFE4F4081D4
:100D0000DC01A60FB71F16969C911697E92FF0E00D
:100D1000E25DFE4F8081E82FF0E0EA5DFE4F5081FA
:100D2000220F220F220F280F852F809589231696D8
:100D30008C93882321F4842F809538233983E22FE4
:100D4000F0E0EE0FFF1FE359F84F0190F081E02D26
:100D50001286118617821682812F809593858923AA
:100D60008387882359F48091EC05842B8093EC05CC
:100D7000FB01E351FA4F8081582B5083822FDF9182
:100D8000CF911F910895CF93DF93EC01A091F305CC
:100D9000B091F40517969C938E9316971E968C919E
:100DA0001E97482F50E01F963C911F97FA01E35180
:100DB000FA4F832F80959081892380838823A9F41B
:100DC00050962C91922F90958091EC0589238093D9
:100DD000EC05FE01E40FF51F8681832B8683898154
:100DE000822B8983DF91CF91089550962C91F1CF7A
:100DF000CF93DF93EC01A091F305B091F4051E961B
:100E00008C911E97FE01E80FF11D1F968C911F9784
:100E10008095968189238683882339F450969C9106
:100E2000509790958981892389831B961C921B97E3
:100E300017961C921E921697DF91CF910895FC0190
:100E40001182168217820895DC01962FF90147FD61
:100E50002EC020E01082F894413079F1413050F0FA
:100E6000423009F438C04330A9F0789487E9808390
:100E700080E0089513966C911397862F80958923AF
:100E8000891709F44EC088E9808313966C91862FE8
:100E90007894089513966C911397892F862349F5BA
:100EA00088E9808313966C91862F789408954F7704
:100EB00021E01082F894413089F613966C911397D3
:100EC000862F80958923E9F488E9808313966C91B5
:100ED000862F7894089513966C911397892F862303
:100EE0008917B1F088E9808313966C91862F7894E6
:100EF00008952130C9F68095862313968C93682F28
:100F0000D3CF213029F7862B13968C93682FE0CF0F
:100F1000213061F7892F8095862313968C93682F53
:100F2000E5CF213009F0B3CF862F892B13968C9310
:100F3000682FADCF282FDB018091F2058823D9F4EB
:100F4000F894E0916A07F0916B07309779F081810E
:100F5000928190936B0780936A0785E08083238357
:100F60001282118278941C92CF01089578948AE9B4
:100F70008C93CF0108958DE88C93E0E0F0E0F4CFFE
:100F8000FC01DB01F894838178941C920895EF9220
:100F9000FF920F931F93CF93DF937C01FB01A091EE
:100FA000F305B091F4051B968C911B9780621B96FC
:100FB0008C931B971A961C930E9319974087218741
:100FC000B583A483E70189819A8191838083138209
:100FD0001282F782E68289819A81009719F0EC01EA
:100FE0007B836A83E701FA83E9831E96EC911E975F
:100FF000F0E0E351FA4F1F968C911F9780959081F6
:1010000089238083882341F450969C919095809108
:10101000EC0589238093EC05DF91CF911F910F910F
:10102000FF90EF90089587E595E090936B0780938C
:101030006A071092570510925905109258050895A5
:10104000CF93DF93FC01A281B381C081D18110973E
:1010500051F01196DC93CE93209711F0BB83AA83B5
:10106000DF91CF9108950680F781E02DD283C1836F
:101070002097B1F31B821A82DF91CF9108951F93BD
:10108000CF93DF93EC01AC81BD811A961C921E9226
:10109000199718966C9318971B968C911B978F7DB8
:1010A0001B968C931B978823E1F48091EC05509656
:1010B0009C915097892B8093EC051E96EC911E977E
:1010C000F0E0E351FA4F80811F969C91892B808339
:1010D00011E0CE010E942008812FDF91CF911F9156
:1010E000089510E0CE010E942008812FDF91CF915A
:1010F0001F9108959C018091F2058823D9F4F894FA
:10110000E091EF05F091F005309731F08481958101
:101110009093F0058093EF057894309749F083E041
:101120008083338322831582148211821682178270
:10113000CF010895E0E0F0E0CF0108951F93CF9331
:10114000DF93182FF894C091E605D091E70520971A
:1011500009F454C08A819B819093E7058093E6054A
:101160007894798368831C871B861A861986E12FF9
:10117000E695E695E695EE87F0E0EA5DFE4F808124
:10118000888BE12FE770ED87F0E0EA5DFE4F80810C
:101190008F871F821E82CE010E944F06CE010E94C1
:1011A0004706F894E12FF0E0EE0FFF1FE359F84FE8
:1011B000D183C083E0915C05F0915D05FB83EA83F8
:1011C0001D821C82309711F0D583C483D0935D05B6
:1011D000C0935C058091EC059889892B8093EC0580
:1011E000EE85F0E0E351FA4F80819F85892B808363
:1011F000789480E0DF91CF911F910895789486E4F0
:10120000DF91CF911F910895F894809152059091AC
:101210005305A0915405B09155050196A11DB11D2E
:101220008093520590935305A0935405B0935505B0
:1012300078940E944E06E8CFF8948091F2058823B6
:1012400009F03FC0809150058823D9F5E091EC0565
:10125000F0E0E25DFE4F8081E82FF0E0E351FA4FCD
:10126000E081F0E0E25DFE4F982F990F990F990F02
:101270008081980F9093560580915B05981709F12E
:10128000E92FF0E0EE0FFF1FE359F84F80819181C5
:101290009093EB058093EA058091DE059091DF0540
:1012A000A091E005B091E1050196A11DB11D8093CB
:1012B000DE059093DF05A093E005B093E1050E9461
:1012C000320F789408959C01009721F1F894A09131
:1012D000F305B091F4051E96EC911E97F0E0E351F2
:1012E000FA4F1F968C911F97809590818923808358
:1012F000882349F450969C91509790958091EC05E5
:1013000089238093EC051A963C932E931997789431
:101310000E941C0908958F929F92AF92BF92CF9224
:10132000DF92EF92FF920F931F93CF93DF93882E5C
:10133000162F942E8823C9F01C3300F58BE38915F2
:1013400090F093E0283E3907D8F083E5DF91CF9104
:101350001F910F91FF90EF90DF90CF90BF90AF90D3
:101360009F908F90089582E5F1CF662329F744235B
:1013700029F72115310529F784E5E8CF81E5E6CF86
:10138000B90180E090E024E630E040E050E00E94C7
:101390002D106C507E4F8F4F9F4F28EE33E040E072
:1013A00050E00E94731059016A01612F70E080E0E3
:1013B00090E02CE330E040E050E00E942D107B01F3
:1013C0008C01E90CF11C011D111D682D70E080E0FD
:1013D00090E020E13EE040E050E00E942D10E60E5B
:1013E000F71E081F191FC801B70124E630E040E0CE
:1013F00050E00E942D10A60EB71EC81ED91E760101
:1014000000271127E7018FEF9FEFA0E0B0E0A822AF
:10141000B922CA22DB22C5010E946309EF2851F0DC
:1014200080E090E80E94630980E090E80E946309F0
:101430002197B1F780E08ACFDF92EF92FF920F936E
:101440001F9380916C07882341F488EC90E00E9400
:10145000630980916C078823C1F36091E205709164
:10146000E3058091E4059091E50524E630E040E055
:1014700050E00E947310C901DA017C018D0144E63D
:10148000D42E10C0A80197010E9473108D2D821BCD
:1014900087FD44C08093E8050E944A0684E690E0F8
:1014A0000E946309F8948091520590915305A09190
:1014B0005405B09155058093870790938807A093B2
:1014C0008907B0938A076091520570915305809106
:1014D00054059091550510925205109253051092A3
:1014E0005405109255057894E114F1040105110595
:1014F00049F61092E8056091E2057091E30580914C
:10150000E4059091E50524E630E040E050E00E94DB
:101510007310C901DA017C018D01BECF1092E8057C
:10152000BBCF82E090E00E946309F89410925205CC
:10153000109253051092540510925505789484E644
:1015400090E00E946309F8948091520590915305B0
:10155000A0915405B09155058093E2059093E30561
:10156000A093E405B093E50581E080936C0778943F
:101570000895AF92BF92CF92DF92EF92FF920F93B6
:101580001F93CF93DF93FC01122FF894C22FD0E06A
:10159000CC0FDD1FC359D84F88819981892B71F0F9
:1015A000789418E2812FDF91CF911F910F91FF90D6
:1015B000EF90DF90CF90BF90AF90089581E090E0E2
:1015C000998388837894CF0120E030E00E941E0642
:1015D000BC01812F40E050E020E030E0EE24FF2409
:1015E0008701CC24DD24AA24BB240E949E08182F46
:1015F000882371F4F8948091E9058F5F8093E90561
:10160000789480915105813069F60E941C09CACFF7
:10161000F894198218827894C5CFFC01F8948181DE
:10162000882379F4828193812FEF8F3F920731F0E5
:10163000019693838283789480E00895789482E37E
:101640000895CF0160E070E041E00E946F06789459
:101650000E941C0980E008950F931F93CF93DF939E
:10166000EC018A018091F205882381F4F8948A8143
:101670009B81009799F001979B838A837894FA0164
:101680001082DF91CF911F910F91089582E0FA01AE
:101690008083DF91CF911F910F910895E091F30521
:1016A000F091F40583858160838772876187CE011D
:1016B0000E94C30678940E941C09F894E091F305F7
:1016C000F091F405838580FD0AC017821682789414
:1016D000F8011082DF91CF911F910F910895CE01F3
:1016E0000E94F80678948AE0F8018083CACFCF92EE
:1016F000DF92EF92FF920F931F93DF93CF930F929E
:10170000CDB7DEB78C017901F894442309F071C09C
:101710006095FC01838186238383F801C180D28098
:10172000C114D10409F475C0198210C0F601608596
:10173000F8018381809586236817C9F0F6018081BE
:1017400091819C0169012115310501F1F601818525
:10175000813089F1813050F3823009F43BC083300D
:1017600069F7F6016085F8018381682339F3C601C2
:101770000E943F08813011F7F1E0F983F601808182
:1017800091819C0169012115310501F77894F98156
:10179000F13009F43BC0F894F80183817894F701A3
:1017A00010820F90CF91DF911F910F91FF90EF90DA
:1017B000DF90CF900895F80163816095F6018085F0
:1017C000682309F4BBCFC6010E943F08813009F0AD
:1017D000B5CFD2CFF6016085F801838186236817E3
:1017E00009F0ACCFC6010E943F08813009F0A6CFB6
:1017F000C3CF413031F0789489E9F901808380E0EA
:10180000D0CFFC018381862B838387CF0E941C0964
:10181000C2CF1982BBCF8F929F92AF92BF92DF92BD
:10182000EF92FF920F931F93DF93CF93CDB7DEB765
:101830002B970FB6F894DEBF0FBECDBF7C01562F9D
:10184000D42EF90158018091F2058823C1F447FD97
:101850003EC01B86F89491E0D91609F441C0D91610
:1018600020F1A2E0DA1609F45CC0B3E0DB1609F45B
:1018700048C0789487E9F501808380E004C082E065
:10188000D8018C9380E02B960FB6F894DEBF0FBE84
:10189000CDBFCF91DF911F910F91FF90EF90DF901F
:1018A000BF90AF909F908F900895D70113964C9161
:1018B000842F80958523851709F071C0BB85B130D1
:1018C00009F486C0842F7894D5011C92DCCFBFE741
:1018D000DB2281E08B87F89491E0D91609F0BFCF25
:1018E000D70113964C91642F6095652309F496C037
:1018F000BB85B13009F466C0842F7894D5011C9261
:10190000C2CFD70113964C91852F842309F479C057
:10191000BB85B13009F450C0842F7894D5011C9256
:10192000B2CFD70113964C91852F8423851749F4A4
:10193000BB85B13009F452C0842F7894D5011C9234
:10194000A2CFC7014E010894811C911CB401452F00
:1019500022E08F010E94C70778940E941C09F89426
:10196000E091F305F091F405838585FD0AC0BB8500
:10197000B130D9F1F7014381842F7894F5011082B9
:1019800082CFC4010E942008E091F305F091F40594
:10199000138678948AE0D5018C9380E074CFC701D8
:1019A0004E010894811C911CB401452F20E08F0149
:1019B0000E94C7077894D1CF80958423F701838351
:1019C000482FAACF862F842BF7018383482F94CFEB
:1019D000842F852BF7018383482F74CF852F809523
:1019E0008423F7018383482FA7CF81E08D1518F159
:1019F000D70113964C9113978085482B13964C93DF
:101A0000BBCFC7014E010894811C911CB401452F26
:101A100023E08F010E94C70778949FCFC7014E0132
:101A20000894811C911CB401452F21E08F010E9474
:101A3000C707789492CF93E09D1520F4D7011396B1
:101A40004C919ACF80858095F70143814823438349
:101A500093CFDF92EF92FF920F931F93CF93DF9379
:101A60008C017A018091F2058823D1F5F894F80170
:101A700021813281DD242115310511F0DD24D3943B
:101A8000662339F4DD20D9F1789488E0F70180836A
:101A90002AC0613061F0789487E0F701808323C029
:101AA000CE0160E00E943F08888199819C01E90194
:101AB00021153105A9F7F801108280916A079091EC
:101AC0006B079283818310936B0700936A07789466
:101AD000F1E0DF1689F0F701108200E010E003C0AA
:101AE0008CE8FA018083C801DF91CF911F910F919B
:101AF000FF90EF90DF9008950E941C09ECCFF80151
:101B0000108280916A0790916B0792838183109372
:101B10006B0700936A077894F701108200E010E0E9
:101B2000E2CF80915105813009F00895F8948091B9
:101B30005005882359F0815080935005882321F463
:101B40008091F205882321F078940895789408957F
:101B500078940E941C0908950E944B0680915105BB
:101B6000813009F00895A0915C05B0915D051C9647
:101B70008C911C978C30B1F32091EC0541E050E042
:101B80001AC050968C915097282B1E96EC911E9758
:101B9000F0E0E351FA4F80811F969C911F97892BAB
:101BA000808312960D90BC91A02D78941C968C91F8
:101BB0001C978C30C1F0F89419968D919C911A97CE
:101BC000009779F301971A969C938E931997892B16
:101BD00041F71B968C911B9783FFD3CF1A965C938A
:101BE0004E931997DECF2093EC050895809151050F
:101BF00081110895E091EC05F0E0E25DFE4FA081D7
:101C0000EA2FF0E0E351FA4FE081F0E0E25DFE4FB1
:101C1000AA0FAA0FAA0F8081A80FA0935605A09320
:101C20005B05B0E0AA0FBB1FA359B84F8D919C91E3
:101C30009093EB058093EA059093F4058093F30568
:101C40000E94FE0E089580915105813009F008959B
:101C5000F8948091F205882339F081508093F20541
:101C6000882311F078940895809150058823D1F746
:101C7000E091EC05F0E0E25DFE4F80818093F1059C
:101C8000E82FF0E0E351FA4FE081F0E0E25DFE4F33
:101C9000982F990F990F990F8081980F909356055F
:101CA00080915B059817F1F2E92FF0E0EE0FFF1F2E
:101CB000E359F84F808191819093EB058093EA0579
:101CC0008091DE059091DF05A091E005B091E105DE
:101CD0000196A11DB11D8093DE059093DF05A093B1
:101CE000E005B093E1050E94950FBCCF0E944C0621
:101CF0001092F205109250051092E90510925105CC
:101D00001092DE051092DF051092E0051092E105B9
:101D100010925205109253051092540510925505D9
:101D20001092EC051092ED051092EE0510925B05F5
:101D3000109256051092EB051092EA051092F405E8
:101D40001092F30510925D0510925C05EDE6F7E048
:101D50001192119227E0E738F207D1F78EE996E069
:101D6000FC013F9791838083419627E08A36920752
:101D7000B9F710925C0710925B078DE896E090939C
:101D8000E7058093E605109275068DE796E090933F
:101D90007A068093790610927D06089690938206C3
:101DA0008093810640971092850610928A061092C1
:101DB00089069093F0058093EF0587E595E0909371
:101DC0006B0780936A07109257051092590510927D
:101DD000580584E099E060E070E044E756E02CE0CC
:101DE0000E94B90A8CE19AE060E070E04DED55E0A8
:101DF0002BE00E94B90A0E944D0608950E944906F0
:101E000000915105039500935105E091EA05F09189
:101E1000EB05C191CDBFD191DEBF0F910FBF0F91E7
:101E20000BBFFF91EF91DF91CF91BF91AF919F9148
:101E30008F917F916F915F914F913F912F911F9162
:101E40000F91FF90EF90DF90CF90BF90AF909F9059
:101E50008F907F906F905F904F903F902F901F904A
:101E60000F9008950F921F922F923F924F925F9280
:101E70006F927F928F929F92AF92BF92CF92DF929A
:101E8000EF92FF920F931F932F933F934F935F9384
:101E90006F937F938F939F93AF93BF93CF93DF9372
:101EA000EF93FF930BB70F930FB70F93E091F305E9
:101EB000F091F405CDB7C193DEB7D1930E944906E6
:101EC0000091560500935B05E091EA05F091EB0562
:101ED000E093F305F093F405C191CDBFD191DEBF3E
:101EE0000F910FBF0F910BBFFF91EF91DF91CF913A
:101EF000BF91AF919F918F917F916F915F914F9122
:101F00003F912F911F910F91FF90EF90DF90CF9015
:101F1000BF90AF909F908F907F906F905F904F9009
:101F20003F902F901F900F9008950E9449060091B6
:101F3000560500935B05E091EA05F091EB05E0930F
:101F4000F305F093F405C191CDBFD191DEBF0F91A0
:101F50000FBF0F910BBFFF91EF91DF91CF91BF9119
:101F6000AF919F918F917F916F915F914F913F9131
:101F70002F911F910F91FF90EF90DF90CF90BF9026
:101F8000AF909F908F907F906F905F904F903F9019
:101F90002F901F900F9008950F921F922F923F92B3
:101FA0004F925F926F927F928F929F92AF92BF9269
:101FB000CF92DF92EF92FF920F931F932F933F9355
:101FC0004F935F936F937F938F939F93AF93BF9341
:101FD000CF93DF93EF93FF930BB70F930FB7006887
:101FE0000F930091F20503950093F205013041F43F
:101FF000CDB7DEB7E091F305F091F405C193D1932D
:1020000004E602BF78940E94AC0D00000E94230EEB
:102010000F910FBF0F910BBFFF91EF91DF91CF9108
:10202000BF91AF919F918F917F916F915F914F91F0
:102030003F912F911F910F91FF90EF90DF90CF90E4
:10204000BF90AF909F908F907F906F905F904F90D8
:102050003F902F901F900F900895629FD001739F23
:10206000F001829FE00DF11D649FE00DF11D929F34
:10207000F00D839FF00D749FF00D659FF00D992773
:10208000729FB00DE11DF91F639FB00DE11DF91F97
:10209000BD01CF0111240895AA1BBB1B51E107C04C
:1020A000AA1FBB1FA617B70710F0A61BB70B881FE8
:1020B000991F5A95A9F780959095BC01CD01089577
:1020C00097FB092E07260AD077FD04D0E5DF06D05E
:1020D00000201AF4709561957F4F0895F6F790955A
:1020E00081959F4F0895A1E21A2EAA1BBB1BFD01EB
:1020F0000DC0AA1FBB1FEE1FFF1FA217B307E407E7
:10210000F50720F0A21BB30BE40BF50B661F771F3E
:10211000881F991F1A9469F760957095809590951E
:0E2120009B01AC01BD01CF010895F894FFCFE3
:10212E0011002B0042004D006100720081008900F9
:10213E0002000100020002003F065B4F666D7C0745
:10214E007F6701020408010204081020408000008D
:10215E000100020001000300010002000100040062
:10216E000100020001000300010002000100050051
:10217E000100020001000300010002000100040042
:10218E000100020001000300010002000100060030
:10219E000100020001000300010002000100040022
:1021AE000100020001000300010002000100050011
:1021BE000100020001000300010002000100040002
:1021CE0001000200010003000100020001000700EF
:1021DE0001000200010003000100020001000400E2
:1021EE0001000200010003000100020001000500D1
:1021FE0001000200010003000100020001000400C2
:10220E0001000200010003000100020001000600AF
:10221E0001000200010003000100020001000400A1
:10222E000100020001000300010002000100050090
:10223E000100020001000300010002000100040081
:0E224E00010002000100030001000200010077
:00000001FF
